{
  "_format": "hh3-artifact-1",
  "contractName": "SentinelAgentRegistry",
  "sourceName": "contracts/SentinelAgentRegistry.sol",
  "abi": [
    {
      "anonymous": false,
      "inputs": [
        {
          "indexed": true,
          "internalType": "uint256",
          "name": "agentId",
          "type": "uint256"
        },
        {
          "indexed": true,
          "internalType": "address",
          "name": "owner",
          "type": "address"
        },
        {
          "indexed": false,
          "internalType": "string",
          "name": "name",
          "type": "string"
        }
      ],
      "name": "AgentRegistered",
      "type": "event"
    },
    {
      "anonymous": false,
      "inputs": [
        {
          "indexed": true,
          "internalType": "uint256",
          "name": "agentId",
          "type": "uint256"
        },
        {
          "indexed": false,
          "internalType": "uint256",
          "name": "totalReports",
          "type": "uint256"
        }
      ],
      "name": "ReportCountUpdated",
      "type": "event"
    },
    {
      "inputs": [
        {
          "internalType": "uint256",
          "name": "",
          "type": "uint256"
        }
      ],
      "name": "agents",
      "outputs": [
        {
          "internalType": "uint256",
          "name": "agentId",
          "type": "uint256"
        },
        {
          "internalType": "address",
          "name": "owner",
          "type": "address"
        },
        {
          "internalType": "string",
          "name": "name",
          "type": "string"
        },
        {
          "internalType": "uint256",
          "name": "createdAt",
          "type": "uint256"
        },
        {
          "internalType": "uint256",
          "name": "reportsGenerated",
          "type": "uint256"
        },
        {
          "internalType": "bool",
          "name": "active",
          "type": "bool"
        }
      ],
      "stateMutability": "view",
      "type": "function"
    },
    {
      "inputs": [
        {
          "internalType": "uint256",
          "name": "agentId",
          "type": "uint256"
        }
      ],
      "name": "getAgent",
      "outputs": [
        {
          "components": [
            {
              "internalType": "uint256",
              "name": "agentId",
              "type": "uint256"
            },
            {
              "internalType": "address",
              "name": "owner",
              "type": "address"
            },
            {
              "internalType": "string",
              "name": "name",
              "type": "string"
            },
            {
              "internalType": "string[]",
              "name": "capabilities",
              "type": "string[]"
            },
            {
              "internalType": "uint256",
              "name": "createdAt",
              "type": "uint256"
            },
            {
              "internalType": "uint256",
              "name": "reportsGenerated",
              "type": "uint256"
            },
            {
              "internalType": "bool",
              "name": "active",
              "type": "bool"
            }
          ],
          "internalType": "struct SentinelAgentRegistry.Agent",
          "name": "",
          "type": "tuple"
        }
      ],
      "stateMutability": "view",
      "type": "function"
    },
    {
      "inputs": [
        {
          "internalType": "uint256",
          "name": "agentId",
          "type": "uint256"
        }
      ],
      "name": "incrementReports",
      "outputs": [],
      "stateMutability": "nonpayable",
      "type": "function"
    },
    {
      "inputs": [],
      "name": "nextAgentId",
      "outputs": [
        {
          "internalType": "uint256",
          "name": "",
          "type": "uint256"
        }
      ],
      "stateMutability": "view",
      "type": "function"
    },
    {
      "inputs": [
        {
          "internalType": "address",
          "name": "",
          "type": "address"
        }
      ],
      "name": "ownerAgent",
      "outputs": [
        {
          "internalType": "uint256",
          "name": "",
          "type": "uint256"
        }
      ],
      "stateMutability": "view",
      "type": "function"
    },
    {
      "inputs": [
        {
          "internalType": "string",
          "name": "name",
          "type": "string"
        },
        {
          "internalType": "string[]",
          "name": "capabilities",
          "type": "string[]"
        }
      ],
      "name": "registerAgent",
      "outputs": [
        {
          "internalType": "uint256",
          "name": "",
          "type": "uint256"
        }
      ],
      "stateMutability": "nonpayable",
      "type": "function"
    }
  ],
  "bytecode": "0x608060405260015f553480156012575f5ffd5b50610bc6806100205f395ff3fe608060405234801561000f575f5ffd5b5060043610610060575f3560e01c8063276a7b5d146100645780632de5aaf71461008a57806330efc498146100aa578063513856c8146100b25780636123bd31146100d75780636841e06e146100f6575b5f5ffd5b61007761007236600461079c565b61010b565b6040519081526020015b60405180910390f35b61009d610098366004610895565b610294565b60405161008191906108da565b6100775f5481565b6100c56100c0366004610895565b6104a0565b604051610081969594939291906109a5565b6100776100e53660046109ee565b60026020525f908152604090205481565b610109610104366004610895565b61056a565b005b335f90815260026020526040812054156101635760405162461bcd60e51b81526020600482015260146024820152734167656e7420616c72656164792065786973747360601b60448201526064015b60405180910390fd5b5f80549081908061017383610a1b565b90915550506040805160e081018252828152336020808301918252828401888152606084018890524260808501525f60a08501819052600160c08601819052878252928390529490942083518155915190820180546001600160a01b0319166001600160a01b03909216919091179055915190919060028201906101f79082610ac3565b506060820151805161021391600384019160209091019061062d565b506080820151600482015560a0820151600582015560c0909101516006909101805460ff1916911515919091179055335f81815260026020526040908190208390555182907f0d063c6022bff16d09991a9f91882ffa112f5fb2529136f65eb4c77bbd047e4390610285908890610b7e565b60405180910390a39392505050565b6102da6040518060e001604052805f81526020015f6001600160a01b0316815260200160608152602001606081526020015f81526020015f81526020015f151581525090565b5f82815260016020818152604092839020835160e08101855281548152928101546001600160a01b031691830191909152600281018054929391929184019161032290610a3f565b80601f016020809104026020016040519081016040528092919081815260200182805461034e90610a3f565b80156103995780601f1061037057610100808354040283529160200191610399565b820191905f5260205f20905b81548152906001019060200180831161037c57829003601f168201915b5050505050815260200160038201805480602002602001604051908101604052809291908181526020015f905b8282101561046e578382905f5260205f200180546103e390610a3f565b80601f016020809104026020016040519081016040528092919081815260200182805461040f90610a3f565b801561045a5780601f106104315761010080835404028352916020019161045a565b820191905f5260205f20905b81548152906001019060200180831161043d57829003601f168201915b5050505050815260200190600101906103c6565b50505090825250600482015460208201526005820154604082015260069091015460ff16151560609091015292915050565b600160208190525f91825260409091208054918101546002820180546001600160a01b0390921692916104d290610a3f565b80601f01602080910402602001604051908101604052809291908181526020018280546104fe90610a3f565b80156105495780601f1061052057610100808354040283529160200191610549565b820191905f5260205f20905b81548152906001019060200180831161052c57829003601f168201915b50505050600483015460058401546006909401549293909290915060ff1686565b5f8181526001602052604090206006015460ff166105bb5760405162461bcd60e51b815260206004820152600e60248201526d4167656e7420696e61637469766560901b604482015260640161015a565b5f8181526001602052604081206005018054916105d783610a1b565b9190505550807fb5c222bebc3c3a2243f909c55a46be9a7bae1a58bdc0adc6b432b60456d55e7060015f8481526020019081526020015f206005015460405161062291815260200190565b60405180910390a250565b828054828255905f5260205f20908101928215610671579160200282015b8281111561067157825182906106619082610ac3565b509160200191906001019061064b565b5061067d929150610681565b5090565b8082111561067d575f610694828261069d565b50600101610681565b5080546106a990610a3f565b5f825580601f106106b8575050565b601f0160209004905f5260205f20908101906106d491906106d7565b50565b5b8082111561067d575f81556001016106d8565b634e487b7160e01b5f52604160045260245ffd5b604051601f8201601f1916810167ffffffffffffffff81118282101715610728576107286106eb565b604052919050565b5f82601f83011261073f575f5ffd5b813567ffffffffffffffff811115610759576107596106eb565b61076c601f8201601f19166020016106ff565b818152846020838601011115610780575f5ffd5b816020850160208301375f918101602001919091529392505050565b5f5f604083850312156107ad575f5ffd5b823567ffffffffffffffff8111156107c3575f5ffd5b6107cf85828601610730565b925050602083013567ffffffffffffffff8111156107eb575f5ffd5b8301601f810185136107fb575f5ffd5b803567ffffffffffffffff811115610815576108156106eb565b8060051b610825602082016106ff565b91825260208184018101929081019088841115610840575f5ffd5b6020850192505b8383101561088657823567ffffffffffffffff811115610865575f5ffd5b6108748a602083890101610730565b83525060209283019290910190610847565b80955050505050509250929050565b5f602082840312156108a5575f5ffd5b5035919050565b5f81518084528060208401602086015e5f602082860101526020601f19601f83011685010191505092915050565b602081528151602082015260018060a01b0360208301511660408201525f604083015160e060608401526109126101008401826108ac565b6060850151848203601f19016080860152805180835291925060209081019181840191600582901b8501015f5b8281101561097057601f1986830301845261095b8286516108ac565b6020958601959490940193915060010161093f565b50608088015160a088015260a088015160c088015260c0880151945061099a60e088018615159052565b979650505050505050565b8681526001600160a01b038616602082015260c0604082018190525f906109ce908301876108ac565b6060830195909552506080810192909252151560a0909101529392505050565b5f602082840312156109fe575f5ffd5b81356001600160a01b0381168114610a14575f5ffd5b9392505050565b5f60018201610a3857634e487b7160e01b5f52601160045260245ffd5b5060010190565b600181811c90821680610a5357607f821691505b602082108103610a7157634e487b7160e01b5f52602260045260245ffd5b50919050565b601f821115610abe57805f5260205f20601f840160051c81016020851015610a9c5750805b601f840160051c820191505b81811015610abb575f8155600101610aa8565b50505b505050565b815167ffffffffffffffff811115610add57610add6106eb565b610af181610aeb8454610a3f565b84610a77565b6020601f821160018114610b23575f8315610b0c5750848201515b5f19600385901b1c1916600184901b178455610abb565b5f84815260208120601f198516915b82811015610b525787850151825560209485019460019092019101610b32565b5084821015610b6f57868401515f19600387901b60f8161c191681555b50505050600190811b01905550565b602081525f610a1460208301846108ac56fea264697066735822122073aa8bf4e3e9834ae95020b5e27c5f7dd9c2c1fac79554df5f4508fe8c54972c64736f6c634300081c0033",
  "linkReferences": {},
  "deployedLinkReferences": {},
  "immutableReferences": {},
  "inputSourceName": "project/contracts/SentinelAgentRegistry.sol",
  "buildInfoId": "solc-0_8_28-a4f6c18628c06bec0a567e19456b6ba78a3fcc8a"
}